:100000000C945C000C9479000C9479000C947900A9
:100010000C9479000C9479000C9479000C9479007C
:100020000C9479000C9479000C9479000C9479006C
:100030000C9479000C9479000C9479000C9479005C
:100040000C941F010C9479000C9479000C947900A5
:100050000C9479000C9479000C9479000C9479003C
:100060000C9479000C947900000000002400270013
:100070002A0000000000250028002B0004040404CE
:100080000404040402020202020203030303030342
:10009000010204081020408001020408102001021F
:1000A00004081020000000080002010000030407FB
:1000B000000000000000000011241FBECFEFD8E0B8
:1000C000DEBFCDBF11E0A0E0B1E0E6E7F6E002C0A0
:1000D00005900D92A430B107D9F721E0A4E0B1E07A
:1000E00001C01D92A531B207E1F70E9469010C948D
:1000F00039030C94000090E0FC01EC55FF4F249173
:10010000FC01E057FF4F3491FC01E458FF4FE491AC
:10011000EE23C9F0222339F0233001F1A8F4213075
:1001200019F1223029F1F0E0EE0FFF1FEE58FF4FDA
:10013000A591B4918FB7F894EC91611126C03095D8
:100140003E233C938FBF08952730A9F02830C9F093
:10015000243049F7809180008F7D03C0809180001A
:100160008F7780938000DFCF84B58F7784BDDBCF1E
:1001700084B58F7DFBCF8091B0008F778093B000E6
:10018000D2CF8091B0008F7DF9CF3E2BDACF3FB731
:10019000F8948091110190911201A0911301B091F6
:1001A000140126B5A89B05C02F3F19F00196A11D8B
:1001B000B11D3FBFBA2FA92F982F8827BC01CD01B1
:1001C000620F711D811D911D42E0660F771F881F10
:1001D000991F4A95D1F708958F929F92AF92BF923F
:1001E000CF92DF92EF92FF926B017C010E94C700D9
:1001F0004B015C01C114D104E104F104B9F00E9487
:10020000C700681979098A099B09683E734081050E
:10021000910580F321E0C21AD108E108F10888EEC7
:10022000880E83E0981EA11CB11CE4CFFF90EF90D4
:10023000DF90CF90BF90AF909F908F9008951F92C6
:100240000F920FB60F9211242F933F938F939F938A
:10025000AF93BF9380910D0190910E01A0910F017A
:10026000B091100130910C0123E0230F2D3758F588
:100270000196A11DB11D20930C0180930D01909357
:100280000E01A0930F01B093100180911101909184
:100290001201A0911301B09114010196A11DB11D8D
:1002A0008093110190931201A0931301B093140154
:1002B000BF91AF919F918F913F912F910F900FBE62
:1002C0000F901F90189526E8230F0296A11DB11DCF
:1002D000D2CF789484B5826084BD84B5816084BDBA
:1002E00085B5826085BD85B5816085BD80916E00D4
:1002F000816080936E001092810080918100826005
:100300008093810080918100816080938100809141
:1003100080008160809380008091B1008460809330
:10032000B1008091B00081608093B00080917A002C
:10033000846080937A0080917A00826080937A0052
:1003400080917A00816080937A0080917A00806841
:1003500080937A001092C10080E480937C008091A9
:100360007A00806480937A0080917A0086FDFCCFC9
:100370006091780070917900072E000C880B990B22
:10038000611571058105910511F00E94CD02EDE91D
:10039000F0E02491E9E8F0E08491882399F090E07E
:1003A000880F991FFC01E859FF4FA591B491FC01FA
:1003B000EE58FF4F859194918FB7F894EC91E22B12
:1003C000EC938FBF88E7882E85E0982EA12CB12C66
:1003D0009CEB492E92E0592E612C712CC0E0D0E0AC
:1003E0000E947E02A50194010E94D6026C597F4FA3
:1003F0008F4F9F4F609308017093090180930A010A
:1004000090930B010E947E02A30192010E94D602EA
:100410006B017C0128ECC20ED11CE11CF11CC092C6
:100420000401D0920501E0920601F092070161E01B
:100430008DE00E947B00609108017091090180911C
:100440000A0190910B010E94EC0060E08DE00E9497
:100450007B00C701B6010E94EC00209709F20E94C0
:100460000000BECF8F929F92AF92BF92CF92DF9249
:10047000EF92FF92CF93DF93EC01688179818A81BB
:100480009B81611571058105910521F464E279ED87
:100490008BE597E02DE133EF41E050E00E94D6027A
:1004A00049015A019B01AC01A7EAB1E40E94F5029F
:1004B0006B017C01ACEEB4EFA50194010E94030333
:1004C000C60ED71EE81EF91EF7FE06C081E0C81A48
:1004D000D108E10880E8F80AC882D982EA82FB8262
:1004E000C701B6019F77DF91CF91FF90EF90DF902A
:1004F000CF90BF90AF909F908F9008958F929F92D2
:10050000AF92BF92CF92DF92EF92FF926091000183
:1005100070910101809102019091030161157105B3
:100520008105910521F464E279ED8BE597E02DE1F9
:1005300033EF41E050E00E94D60249015A019B018D
:10054000AC01A7EAB1E40E94F5026B017C01ACEEBC
:10055000B4EFA50194010E940303C60ED71EE81E46
:10056000F91EF7FE06C081E0C81AD108E10880E84C
:10057000F80AC0920001D0920101E0920201F092CB
:100580000301C701B6019F77FF90EF90DF90CF90F6
:10059000BF90AF909F908F900895609300017093EB
:1005A000010180930201909303010895052E97FBAA
:1005B0001EF400940E94ED0257FD07D00E9408032C
:1005C00007FC03D04EF40C94ED0250954095309505
:1005D00021953F4F4F4F5F4F0895909580957095AF
:1005E00061957F4F8F4F9F4F08950E942A03A59FCB
:1005F000900DB49F900DA49F800D911D112408951E
:10060000B7FF0C94F5020E94F502821B930B08952C
:10061000A1E21A2EAA1BBB1BFD010DC0AA1FBB1F06
:10062000EE1FFF1FA217B307E407F50720F0A21B78
:10063000B30BE40BF50B661F771F881F991F1A94E5
:1006400069F760957095809590959B01AC01BD010F
:10065000CF010895A29FB001B39FC001A39F700D69
:10066000811D1124911DB29F700D811D1124911DBA
:060670000895F894FFCF8D
:04067600010000007F
:00000001FF
